8=FIX.4.4|9=67|35=A|34=1|49=server|52=20180519-08:44:28.137|56=client|98=0|108=30|10=040|8=FIX.4.4|9=55|35=5|34=2|49=server|52=20180519-08:44:28.154|56=client|10=000|8=FIX.4.4|9=67|35=A|34=3|49=server|52=20180519-08:46:31.604|56=client|98=0|108=30|10=037|8=FIX.4.4|9=64|35=2|34=4|49=server|52=20180519-08:46:31.613|56=client|7=2|16=0|10=119|8=FIX.4.4|9=55|35=0|34=5|49=server|52=20180519-08:47:02.064|56=client|10=249|8=FIX.4.4|9=67|35=A|34=6|49=server|52=20180519-09:10:21.233|56=client|98=0|108=30|10=029|8=FIX.4.4|9=55|35=0|34=7|49=server|52=20180519-09:10:52.088|56=client|10=253|8=FIX.4.4|9=55|35=0|34=8|49=server|52=20180519-09:11:22.089|56=client|10=253|8=FIX.4.4|9=55|35=0|34=9|49=server|52=20180519-09:11:52.091|56=client|10=250|8=FIX.4.4|9=56|35=0|34=10|49=server|52=20180519-09:12:22.091|56=client|10=033|8=FIX.4.4|9=56|35=0|34=11|49=server|52=20180519-09:12:52.092|56=client|10=038|8=FIX.4.4|9=56|35=0|34=12|49=server|52=20180519-09:13:22.094|56=client|10=039|8=FIX.4.4|9=56|35=0|34=13|49=server|52=20180519-09:13:52.094|56=client|10=043|8=FIX.4.4|9=56|35=0|34=14|49=server|52=20180519-09:14:22.096|56=client|10=044|8=FIX.4.4|9=56|35=0|34=15|49=server|52=20180519-09:14:52.097|56=client|10=049|8=FIX.4.4|9=56|35=0|34=16|49=server|52=20180519-09:15:22.093|56=client|10=044|8=FIX.4.4|9=56|35=0|34=17|49=server|52=20180519-09:15:52.095|56=client|10=050|8=FIX.4.4|9=56|35=0|34=18|49=server|52=20180519-09:16:22.096|56=client|10=050|8=FIX.4.4|9=56|35=0|34=19|49=server|52=20180519-09:16:52.096|56=client|10=054|8=FIX.4.4|9=56|35=0|34=20|49=server|52=20180519-09:17:22.105|56=client|10=035|8=FIX.4.4|9=56|35=0|34=21|49=server|52=20180519-09:17:52.110|56=client|10=035|8=FIX.4.4|9=56|35=0|34=22|49=server|52=20180519-09:18:22.137|56=client|10=043|8=FIX.4.4|9=56|35=0|34=23|49=server|52=20180519-09:18:52.141|56=client|10=042|8=FIX.4.4|9=56|35=0|34=24|49=server|52=20180519-09:19:22.143|56=client|10=043|8=FIX.4.4|9=56|35=0|34=25|49=server|52=20180519-09:19:52.145|56=client|10=049|8=FIX.4.4|9=56|35=0|34=26|49=server|52=20180519-09:20:22.145|56=client|10=039|8=FIX.4.4|9=56|35=0|34=27|49=server|52=20180519-09:20:52.146|56=client|10=044|8=FIX.4.4|9=56|35=0|34=28|49=server|52=20180519-09:21:22.147|56=client|10=044|8=FIX.4.4|9=56|35=0|34=29|49=server|52=20180519-09:21:52.148|56=client|10=049|8=FIX.4.4|9=56|35=0|34=30|49=server|52=20180519-09:22:22.150|56=client|10=032|8=FIX.4.4|9=56|35=0|34=31|49=server|52=20180519-09:22:52.150|56=client|10=036|8=FIX.4.4|9=56|35=0|34=32|49=server|52=20180519-09:23:22.151|56=client|10=036|8=FIX.4.4|9=56|35=0|34=33|49=server|52=20180519-09:23:52.152|56=client|10=041|8=FIX.4.4|9=56|35=0|34=34|49=server|52=20180519-09:24:22.154|56=client|10=042|8=FIX.4.4|9=56|35=0|34=35|49=server|52=20180519-09:24:52.155|56=client|10=047|8=FIX.4.4|9=56|35=0|34=36|49=server|52=20180519-09:25:22.156|56=client|10=047|8=FIX.4.4|9=56|35=0|34=37|49=server|52=20180519-09:25:52.158|56=client|10=053|8=FIX.4.4|9=56|35=0|34=38|49=server|52=20180519-09:26:22.158|56=client|10=052|8=FIX.4.4|9=56|35=0|34=39|49=server|52=20180519-09:26:52.159|56=client|10=057|8=FIX.4.4|9=56|35=0|34=40|49=server|52=20180519-09:27:22.160|56=client|10=039|8=FIX.4.4|9=56|35=0|34=41|49=server|52=20180519-09:27:52.161|56=client|10=044|8=FIX.4.4|9=56|35=0|34=42|49=server|52=20180519-09:28:22.162|56=client|10=044|8=FIX.4.4|9=56|35=0|34=43|49=server|52=20180519-09:28:52.163|56=client|10=049|8=FIX.4.4|9=56|35=0|34=44|49=server|52=20180519-09:29:22.159|56=client|10=053|8=FIX.4.4|9=56|35=0|34=45|49=server|52=20180519-09:29:52.157|56=client|10=055|8=FIX.4.4|9=56|35=0|34=46|49=server|52=20180519-09:30:22.160|56=client|10=039|8=FIX.4.4|9=56|35=0|34=47|49=server|52=20180519-09:30:52.157|56=client|10=049|8=FIX.4.4|9=56|35=0|34=48|49=server|52=20180519-09:31:22.163|56=client|10=045|8=FIX.4.4|9=56|35=0|34=49|49=server|52=20180519-09:31:52.162|56=client|10=048|8=FIX.4.4|9=68|35=A|34=50|49=server|52=20180519-09:32:48.966|56=client|98=0|108=30|10=103|8=FIX.4.4|9=56|35=0|34=51|49=server|52=20180519-09:33:19.804|56=client|10=049|