8=FIX.4.4|9=73|35=A|34=1|49=client|52=20180519-08:37:32.087|56=server|98=0|108=30|141=Y|10=083|8=FIX.4.4|9=55|35=0|34=2|49=client|52=20180519-08:38:02.082|56=server|10=246|8=FIX.4.4|9=64|35=F|34=3|49=client|52=20180519-08:44:27.176|56=server|16=LIMIT|10=057|8=FIX.4.4|9=67|35=A|34=4|49=client|52=20180519-08:44:28.118|56=server|98=0|108=30|10=042|8=FIX.4.4|9=104|35=5|34=5|49=client|52=20180519-08:44:28.151|56=server|58=MsgSeqNum too low, expecting 3 but received 1|10=195|8=FIX.4.4|9=64|35=F|34=6|49=client|52=20180519-08:46:30.587|56=server|16=LIMIT|10=062|8=FIX.4.4|9=67|35=A|34=7|49=client|52=20180519-08:46:31.561|56=server|98=0|108=30|10=043|8=FIX.4.4|9=55|35=0|34=8|49=client|52=20180519-08:47:02.067|56=server|10=255|8=FIX.4.4|9=67|35=A|34=9|49=client|52=20180519-09:10:21.215|56=server|98=0|108=30|10=032|8=FIX.4.4|9=56|35=0|34=10|49=client|52=20180519-09:10:51.210|56=server|10=026|8=FIX.4.4|9=56|35=0|34=11|49=client|52=20180519-09:11:21.211|56=server|10=026|8=FIX.4.4|9=56|35=0|34=12|49=client|52=20180519-09:11:51.209|56=server|10=037|8=FIX.4.4|9=56|35=0|34=13|49=client|52=20180519-09:12:21.215|56=server|10=033|8=FIX.4.4|9=56|35=0|34=14|49=client|52=20180519-09:12:51.212|56=server|10=034|8=FIX.4.4|9=56|35=0|34=15|49=client|52=20180519-09:13:21.216|56=server|10=037|8=FIX.4.4|9=56|35=0|34=16|49=client|52=20180519-09:13:51.214|56=server|10=039|8=FIX.4.4|9=56|35=0|34=17|49=client|52=20180519-09:14:21.217|56=server|10=041|8=FIX.4.4|9=56|35=0|34=18|49=client|52=20180519-09:14:51.218|56=server|10=046|8=FIX.4.4|9=56|35=0|34=19|49=client|52=20180519-09:15:21.216|56=server|10=043|8=FIX.4.4|9=56|35=0|34=20|49=client|52=20180519-09:15:51.217|56=server|10=039|8=FIX.4.4|9=56|35=0|34=21|49=client|52=20180519-09:16:21.222|56=server|10=034|8=FIX.4.4|9=56|35=0|34=22|49=client|52=20180519-09:16:51.221|56=server|10=037|8=FIX.4.4|9=56|35=0|34=23|49=client|52=20180519-09:17:21.220|56=server|10=035|8=FIX.4.4|9=56|35=0|34=24|49=client|52=20180519-09:17:51.230|56=server|10=040|8=FIX.4.4|9=56|35=0|34=25|49=client|52=20180519-09:18:21.259|56=server|10=050|8=FIX.4.4|9=56|35=0|34=26|49=client|52=20180519-09:18:51.261|56=server|10=047|8=FIX.4.4|9=56|35=0|34=27|49=client|52=20180519-09:19:21.267|56=server|10=052|8=FIX.4.4|9=56|35=0|34=28|49=client|52=20180519-09:19:51.263|56=server|10=052|8=FIX.4.4|9=56|35=0|34=29|49=client|52=20180519-09:20:21.269|56=server|10=048|8=FIX.4.4|9=56|35=0|34=30|49=client|52=20180519-09:20:51.271|56=server|10=036|8=FIX.4.4|9=56|35=0|34=31|49=client|52=20180519-09:21:21.270|56=server|10=034|8=FIX.4.4|9=56|35=0|34=32|49=client|52=20180519-09:21:51.271|56=server|10=039|8=FIX.4.4|9=56|35=0|34=33|49=client|52=20180519-09:22:21.268|56=server|10=044|8=FIX.4.4|9=56|35=0|34=34|49=client|52=20180519-09:22:51.270|56=server|10=041|8=FIX.4.4|9=56|35=0|34=35|49=client|52=20180519-09:23:21.271|56=server|10=041|8=FIX.4.4|9=56|35=0|34=36|49=client|52=20180519-09:23:51.275|56=server|10=049|8=FIX.4.4|9=56|35=0|34=37|49=client|52=20180519-09:24:21.274|56=server|10=047|8=FIX.4.4|9=56|35=0|34=38|49=client|52=20180519-09:24:51.275|56=server|10=052|8=FIX.4.4|9=56|35=0|34=39|49=client|52=20180519-09:25:21.274|56=server|10=050|8=FIX.4.4|9=56|35=0|34=40|49=client|52=20180519-09:25:51.278|56=server|10=049|8=FIX.4.4|9=56|35=0|34=41|49=client|52=20180519-09:26:21.278|56=server|10=048|8=FIX.4.4|9=56|35=0|34=42|49=client|52=20180519-09:26:51.278|56=server|10=052|8=FIX.4.4|9=56|35=0|34=43|49=client|52=20180519-09:27:21.281|56=server|10=045|8=FIX.4.4|9=56|35=0|34=44|49=client|52=20180519-09:27:51.281|56=server|10=049|8=FIX.4.4|9=56|35=0|34=45|49=client|52=20180519-09:28:21.280|56=server|10=047|8=FIX.4.4|9=56|35=0|34=46|49=client|52=20180519-09:28:51.281|56=server|10=052|8=FIX.4.4|9=56|35=0|34=47|49=client|52=20180519-09:29:21.277|56=server|10=056|8=FIX.4.4|9=56|35=0|34=48|49=client|52=20180519-09:29:51.278|56=server|10=061|8=FIX.4.4|9=56|35=0|34=49|49=client|52=20180519-09:30:21.283|56=server|10=047|8=FIX.4.4|9=56|35=0|34=50|49=client|52=20180519-09:30:51.280|56=server|10=039|8=FIX.4.4|9=56|35=0|34=51|49=client|52=20180519-09:31:21.284|56=server|10=042|8=FIX.4.4|9=56|35=0|34=52|49=client|52=20180519-09:31:51.284|56=server|10=046|8=FIX.4.4|9=68|35=A|34=53|49=client|52=20180519-09:32:48.937|56=server|98=0|108=30|10=104|8=FIX.4.4|9=56|35=0|34=54|49=client|52=20180519-09:33:18.935|56=server|10=056|