8=FIXT.1.1|9=80|35=A|34=1|49=Trader|52=20180608-02:06:24.893|56=Broker|98=0|108=30|141=Y|1137=9|10=142|8=FIXT.1.1|9=55|35=0|34=2|49=Trader|52=20180608-02:06:54.890|56=Broker|10=247|