8=FIXT.1.1|9=74|35=A|34=1|49=client|52=20180521-04:41:28.092|56=server|98=0|108=30|1137=9|10=169|8=FIXT.1.1|9=55|35=0|34=2|49=client|52=20180521-04:41:58.084|56=server|10=064|8=FIXT.1.1|9=55|35=0|34=3|49=client|52=20180521-04:42:28.083|56=server|10=062|8=FIXT.1.1|9=55|35=0|34=4|49=client|52=20180521-04:42:58.084|56=server|10=067|8=FIXT.1.1|9=169|35=D|34=5|49=client|50=trader2|52=20180521-04:43:08.239|56=server|11=c4cbbc8e-3351-4abf-a6a1-d6d1d27f4eae|38=11.2|40=1|44=10.2|54=1|55=CU_SEP18|60=20180521-04:43:08.222|10=068|8=FIXT.1.1|9=55|35=0|34=6|49=client|52=20180521-04:43:39.086|56=server|10=071|