8=FIXT.1.1|9=74|35=A|34=1|49=server|52=20180521-04:41:28.191|56=client|98=0|108=30|1137=9|10=169|8=FIXT.1.1|9=55|35=0|34=2|49=server|52=20180521-04:41:58.963|56=client|10=070|8=FIXT.1.1|9=55|35=0|34=3|49=server|52=20180521-04:42:28.964|56=client|10=070|8=FIXT.1.1|9=55|35=0|34=4|49=server|52=20180521-04:42:58.966|56=client|10=076|8=FIXT.1.1|9=55|35=0|34=5|49=server|52=20180521-04:43:28.965|56=client|10=074|